:020000040800F2
:10000000F8080020C9010008D1090008D309000838
:10001000D7090008DB090008DF090008000000001C
:10002000000000000000000000000000E3090008DC
:10003000E509000800000000E7090008E9090008D8
:10004000E3010008E3010008E3010008E301000800
:10005000E3010008E3010008E3010008E3010008F0
:10006000E3010008E3010008E3010008E3010008E0
:10007000E3010008E3010008E3010008E3010008D0
:10008000E3010008E3010008E3010008E3010008C0
:10009000EB090008E3010008E3010008E3010008A0
:1000A000E3010008E3010008E3010008E3010008A0
:1000B000E3010008E3010008E3010008E301000890
:1000C000E3010008E3010008E3010008E301000880
:1000D000E30100081B0A0008250A00082F0A00088F
:1000E000E3010008E3010008E301000800F002F862
:1000F00000F05AF80AA090E8000C82448344AAF168
:100100000107DA4501D100F04FF8AFF2090EBAE865
:100110000F0013F0010F18BFFB1A43F0010318473B
:1001200044310000643100000A444FF0000C10F824
:10013000013B13F0070408BF10F8014B1D1108BF65
:1001400010F8015B641E05D010F8016B641E01F805
:10015000016BF9D113F0080F1EBF10F8014BAD1C55
:100160000C1B09D16D1E58BF01F801CBFAD505E073
:1001700014F8016B01F8016B6D1EF9D59142D6D3CD
:10018000704700000023002400250026103A28BFF5
:1001900078C1FBD8520728BF30C148BF0B607047F9
:1001A0001FB51FBD10B510BD02F079FF1146FFF756
:1001B000F7FF00F095F902F097FF03B4FFF7F2FFA5
:1001C00003BC02F09BFF0000094880470948004734
:1001D000FEE7FEE7FEE7FEE7FEE7FEE7FEE7FEE7F7
:1001E000FEE7FEE704480549054A064B7047000054
:1001F00071120008ED000008F8020020F808002045
:10020000F8040020F804002010B504462CB14FF487
:100210008051AC4800F04DFB04E04FF48051A948F8
:1002200000F045FB10BD10B50121102000F078FD55
:100230000020FFF7E9FFA449A24800F08BFA10BDA7
:100240000320A24908607047A148817A19B10521AD
:100250009E4A116002E001219C4A1160704708B576
:10026000002000F0BDFC0121C80500F066FD4FF440
:10027000C06000F0A1F900208DF8020014208DF874
:10028000000000208DF8010001208DF80300684671
:1002900000F097F925208DF8000001208DF801006D
:1002A000684600F08EF926208DF8000002208DF8B7
:1002B0000100684600F085F927208DF80000032032
:1002C0008DF80100684600F07CF908BD10B50446C1
:1002D0000121E06900F024FD206A18B10121206AA3
:1002E00000F02BFD606A18B10121606A00F018FD72
:1002F0000121084600F014FDD4E9040100F02AFAB7
:10030000A169206900F026FA7249E06800F0AFFDAB
:100310000121E06800F01CFE012240F22551E06856
:1003200000F022FE10BD10B504464FF4E1306949DB
:10033000086000208880C880088188810C2048815E
:100340002046FFF7C3FF10BD10B504462C20005D0A
:1003500020B1012806D002280ED108E000205D4916
:10036000C8800EE04FF440505A49C88009E04FF46D
:1003700000505849C88004E02046FFF7D4FF002011
:1003800010BD00BF2D20005D20B1012806D002283D
:100390000ED108E000204F4908810EE04FF4806044
:1003A0004C49088109E04FF4C0604A49088104E0E3
:1003B0002046FFF7B8FF0020E2E700BF2E20005DD7
:1003C000072802D0082810D103E000204149888086
:1003D00010E04048008918B900203E49888003E0B9
:1003E0004FF480503B49888004E02046FFF79BFF94
:1003F0000020C5E700BF3749A06A08600020888157
:100400000C2048812046FFF761FF0120B8E770B556
:10041000044604F130050EE02068401E206015F807
:10042000011BE06800F001FE00BF8021E06800F0E1
:1004300053FE0028F9D020680028EDD1207A02F080
:10044000B9FA70BD70B504462E20005D072805D1AD
:10045000E06800F0EEFD00F07F0503E0E06800F0EA
:10046000E8FDC5B2616804F1500045546068401C65
:1004700060606268E07A04F1500102F0DBFDA07A6E
:1004800002F080FA70BD10B5134B18681B1D196877
:100490001B1D1A68A8B1114CA070030A2371030C2C
:1004A000A371030E2372A1720B0A23730B0CA373A7
:1004B0000B0E2374A274130A2375130CA375130E69
:1004C000237610BD00100140223100086002002098
:1004D0007802002068020020E8F7FF1F6701002073
:1004E000FFF7A1FE0121102000F01AFC2A48406805
:1004F00040F48010284948600846406820F44000D5
:1005000048600121042000F00BFC2448006840F4FE
:10051000C0202249086021480C30006840F000509B
:100520001E490C310860002400E0641C1C48844211
:10053000FBD31948C06880F400501749C860FFF722
:100540008EFE01F099FC00BF15E0164800680528F2
:1005500011D11548006810B11348FFF758FF134830
:10056000006810B11148FFF752FF1148006810B140
:100570000F48FFF74CFFE8E770B504460D46E0B2C0
:100580000C49088000BF80210A48001F00F0A4FD2C
:100590000028F8D0204670BD00100140040801403A
:1005A000002D3101600200200000002070000020BA
:1005B000E00000200438014031490143314A116014
:1005C000704770B5002100230F22C47804B32D4C6E
:1005D000246804F4E064C4F5E064210AC1F1040372
:1005E000CA40447804FA03F1847814402143090195
:1005F000254C0678A155047804F01F050124AC4071
:1006000005786D11AD0005F1E025C5F8004109E060
:10061000047804F01F050124AC401C4D06787611C7
:1006200045F8264070BD1A4A0A400243154B1B1F6D
:100630001A60704739B1134A121D12680243114BF8
:100640001B1D1A6006E00F4A121D126882430D4BF3
:100650001B1D1A607047042808D14FF0E02109697A
:1006600041F004014FF0E022116107E04FF0E0217A
:10067000096921F004014FF0E02211617047000088
:100680000000FA050CED00E000E400E080E100E08D
:1006900080FFFF1F10B50446C448844208D10121E1
:1006A000042000F057FB0021042000F053FB46E03B
:1006B000BF48844208D10121082000F04BFB0021F3
:1006C000082000F047FB3AE0BA48844208D10121F3
:1006D000102000F03FFB0021102000F03BFB2EE03B
:1006E000B548844208D10121202000F033FB0021CD
:1006F000202000F02FFB22E0B048844208D10121E5
:10070000402000F027FB0021402000F023FB16E0F2
:10071000AB48844208D10121802000F01BFB00215E
:10072000802000F017FB0AE0A648844207D101218F
:10073000801500F00FFB0021A01500F00BFB10BD91
:1007400010B50121084600F005FB0021012000F052
:1007500001FB10BD2DE9F0410246002500260020D6
:1007600000230024002791F803C00CF00F0591F836
:1007700003C00CF0100CBCF1000F03D091F802C0C4
:100780004CEA050591F800C0BCF1000F31D01468A7
:1007900000202BE04FF0010C0CFA00F3B1F800C080
:1007A0000CEA03069E4220D183004FF00F0C0CFA96
:1007B00003F7BC4305FA03FC4CEA040491F803C0B8
:1007C000BCF1280F06D14FF0010C0CFA00FCC2F866
:1007D00014C00AE091F803C0BCF1480F05D14FF0F6
:1007E000010C0CFA00FCC2F810C0401C0828D1D340
:1007F0001460B1F800C0BCF1FF0F34DD5468002074
:100800002EE000F1080C4FF0010808FA0CF3B1F8E3
:1008100000C00CEA03069E4221D183004FF00F0C6A
:100820000CFA03F7BC4305FA03FC4CEA040491F804
:1008300003C0BCF1280F05D100F1080C08FA0CF830
:10084000C2F8148091F803C0BCF1480F07D100F141
:10085000080C4FF0010808FA0CF8C2F81080401C90
:100860000828CED35460BDE8F0814FF6FF710180B7
:10087000022181700421C1707047024600209368F4
:100880000B400BB1012000E0002070470146886852
:1008900080B2704702460020D3680B400BB10120A4
:1008A00000E0002070470146C86880B270470161CF
:1008B0007047416170470AB1016100E041617047D2
:1008C000C16070474FF480320A4382618161826166
:1008D000826982697047024600203B4B18684FF6D8
:1008E0008073184040EA02100843374B1860704785
:1008F0003649C8617047F0B50A460023002400213C
:100900000025314E7168C0F3034583B200F44016F0
:10091000B6F5401F08D121F070612B4E766826F0A5
:100920007066294F7E6012E000F48016B6F5801FD5
:1009300006D1032606FA05F4A14341F0706106E0F2
:10094000460D360103FA06F6B14341F0706122B15B
:10095000460D360103FA06F631431B4E7160F0BDB9
:1009600030B500228B071C0F0F2303FA04F2164B3D
:1009700008338C1053F824309343134C08348D10F3
:1009800044F8253023468C1053F824308C07240F6C
:1009900000FA04F423430C4C08348D1044F825303D
:1009A00030BD0A49DC310860704700000008014092
:1009B000000C0140001001400014014000180140EB
:1009C000001C0140002001400000014000002042C6
:1009D000704700BFFEE700BFFEE700BFFEE700BFB5
:1009E000FEE7704770477047704710B501F000FC94
:1009F00010BD10B5044640F22551E06800F082FBBE
:100A000010B12046FFF71EFD0821E06800F064FBEE
:100A100010B1E06800F00DFB10BD10B50648FFF7FF
:100A2000E8FF10BD10B50548FFF7E3FF10BD10B596
:100A30000348FFF7DEFF10BD00000020700000201B
:100A4000E0000020DF48006840F00100DD49086058
:100A500008464068DC490840DA49486008460068B2
:100A6000DA490840D74908600846006820F4802029
:100A700008600846406820F4FE0048604FF41F00FC
:100A800088607047CF49096821F48031CD4A1160F0
:100A90001146096821F480211160B0F5803F03D030
:100AA000B0F5802F0ED106E0C649096841F48031C7
:100AB000C44A116007E0C349096841F4A021C14A52
:100AC000116000E000BF00BF704710B50146002272
:100AD000002300204A11012A02D1BA4C236806E003
:100AE000022A02D1B74C236A01E0B64C636A01F0D6
:100AF0001F02012494401C400CB1012000E00020A2
:100B000010BD38B5002000900024002500BF312022
:100B1000FFF7DBFF05460098401C00900098B0F5F9
:100B2000A06F01D0002DF2D03120FFF7CEFF08B129
:100B3000012400E00024204638BD01460020A14ADF
:100B4000106820F0F80040EAC10010607047A0492A
:100B500008607047024600209A4B586820F47C10C9
:100B600042EA01031843974B58607047984908665A
:100B7000704701460020934A506820F00300084364
:100B8000506070478F48406800F00C007047014685
:100B900000208C4A506820F0F000084350607047F5
:100BA00001460020874A506820F4E0600843506006
:100BB000704701460020834A506820F4605040EAA4
:100BC000C1005060704729B17E4A527A02437D4B82
:100BD0005A7204E07B4A527A82437A4B5A727047C7
:100BE0007B49D8310860704701460020754A50683B
:100BF00020F440400843506070470021714A203281
:100C00001170704A82F82010012802D004280AD1FD
:100C100004E001216B4A2032117005E00521694A88
:100C20002032117000E000BF00BF704769490860C2
:100C300070476449096A0143624A11627047654915
:100C400044390860704730B5002100220024002399
:100C50005C4D6D6805F00C0121B1042905D008290F
:100C600023D105E05C4D056022E05B4D05601FE08F
:100C7000544D6D6805F47012524D6D6805F4803462
:100C8000022505EB92421CB9544D554305600BE01B
:100C90004C4D6D6805F400351DB1504D5543056050
:100CA00002E04D4D5543056002E04B4D056000BF2D
:100CB00000BF444D6D6805F0F0010909484D6B5CBB
:100CC0000568DD4045603F4D6D6805F4E061090A47
:100CD000434D6B5C4568DD4085603A4D6D6805F4B9
:100CE0006051C90A3E4D6B5C4568DD40C560354DBD
:100CF0006D6805F44041890B3A4D6B5CC568B5FBE6
:100D0000F3F5056130BD29B12E4A526902432D4BDE
:100D10005A6104E02B4A526982432A4B5A61704758
:100D200029B1284A92690243264B9A6104E0254A78
:100D300092698243234B9A61704729B1214AD26953
:100D40000243204BDA6104E01E4AD26982431D4B04
:100D5000DA61704729B11B4AD2680243194BDA6045
:100D600004E0184AD2688243164BDA60704729B112
:100D7000144A12690243134B1A6104E0114A1269C2
:100D80008243104B1A61704712494039086070471E
:100D90000F49C86470470B49C87170470948406AD9
:100DA00040F0807007494862704701460020054ABC
:100DB00092680A400AB1012000E000207047014912
:100DC00088727047001002400000FFF8FFFFF6FE37
:100DD000000042428004424200127A0000093D00B5
:100DE000500100206001002010B50446E248844212
:100DF00009D101218803FFF7ADFF00214FF48040A6
:100E0000FFF7A8FF32E0DD48844209D10121480400
:100E1000FFF7ADFF00214FF40030FFF7A8FF25E0FA
:100E2000D748844209D101218804FFF7A0FF00219F
:100E30004FF48020FFF79BFF18E0D248844209D18D
:100E40000121C804FFF793FF00214FF40020FFF7B2
:100E50008EFF0BE0CC48844208D101210805FFF742
:100E600086FF00214FF48010FFF781FF10BD2DE9B0
:100E7000F04786B005460E460024A24600BF00BFDC
:100E80000027B08900B100BF2F462C8A4CF6FF70B6
:100E90000440F08804432C82AC894EF6F3100440E1
:100EA000B08831890843718908430443AC81AC8A16
:100EB0004FF6FF400440B0890443AC8201A8FFF71D
:100EC000C2FEAD48874202D1DDF810A001E0DDF896
:100ED0000CA00AEBCA0000EB0A1031688900B0FBD5
:100EE000F1F86420B8FBF0F004012009642101FB53
:100EF0001089322000EB0910B0FBF1F000F00F0078
:100F000004432C8106B0BDE8F0874FF41651016010
:100F100000218180C18001810C21418100218181DA
:100F2000704710B502460020108A4FF2FF031840A8
:100F30000B884C8823438C882343CC882343184355
:100F4000108210BD0021018041808180C1807047E6
:100F500021B1828942F40052828104E082894DF6F7
:100F6000FF731A4082817047F0B5034600240026C3
:100F70000025002040F66A17B94200D100BF18468C
:100F8000C1F3421401F01F06012707FA06F5012CF0
:100F900001D10C3004E0022C01D1103000E01430FB
:100FA0001AB107682F43076002E00768AF43076084
:100FB000F0BD1AB1838A0B43838202E0838A8B439C
:100FC00083827047028A4FF6F0731A400282028AC7
:100FD0000A430282704782894FF2FF731A4082816E
:100FE00082890A438281704721B1828942F00202DC
:100FF000828104E082894FF6FD731A408281704736
:10100000028A4FF6DF731A400282028A0A43028282
:10101000704721B1028A42F48042028204E0028ACF
:101020004BF6FF731A4002827047C1F308028280B8
:10103000704701468888C0F308007047818941F0F5
:10104000010181817047028BD2B20283028B42EA96
:10105000012202837047028B02F47F420283028BDB
:101060000A430283704721B1828A42F020028282C1
:1010700004E0828A4FF6DF731A408282704721B102
:10108000828A42F01002828204E0828A4FF6EF7375
:101090001A408282704721B1828A42F0080282821D
:1010A00004E0828A4FF6F7731A4082827047828A80
:1010B0004FF6FB731A408282828A0A43828270470B
:1010C00021B1828A42F00202828204E0828A4FF6D3
:1010D000FD731A408282704702460020B1F5007FFE
:1010E00000D100BF13880B400BB1012000E00020AD
:1010F000704701F40072B2F5007F00D100BFCA430F
:101100000280704770B502460024002300250020AD
:1011100040F66A16B14200D100BFC1F3421501F09A
:101120001F03012606FA03F3012D02D196893340ED
:1011300006E0022D02D1168A334001E0968A334040
:101140000C12012606FA04F41688344013B10CB1CF
:10115000012000E0002070BD10B50022002340F601
:101160006A14A14200D100BF0A1201249440A3B224
:10117000DC43048010BD0000003801400044004002
:1011800000480040004C0040005000400CB50020DA
:10119000019000904848006840F48030464908605B
:1011A00000BF4548006800F4003000900198401CE2
:1011B0000190009818B90198B0F5A06FF1D13E48A0
:1011C000006800F4003010B10120009001E0002020
:1011D00000900098012844D13848006840F0100081
:1011E000364908600846006820F003000860084699
:1011F000006840F0020008602F4840682E494860AF
:101200000846406848600846406840F4806048608E
:101210000846406820F47C1048600846406840F466
:10122000E81048600846006840F08070086000BF21
:101230002148006800F000700028F9D01E4840687E
:1012400020F003001C4948600846406840F0020056
:10125000486000BF1848406800F00C000828F9D129
:1012600001E000BFFEE70CBD10B5FFF78FFF10BD1A
:1012700010B51148006840F001000F4908600846A9
:1012800040680F4908400C494860084600680D490D
:101290000840094908600846006820F4802008607A
:1012A0000846406820F4FE0048604FF41F00886044
:1012B000FFF7DAFF10BD00000010024000200240DE
:1012C0000000FFF8FFFFF6FE10B504462CB9012020
:1012D000F64909680882002010BDF54909680868C8
:1012E0008047F24800680A30F6E710B5EF4800681A
:1012F000C078F0494978884213DCEC48006880786F
:1013000078B9EA480068808858B9E8480068C07829
:10131000E64909688872E6490968486880470020FC
:1013200010BD0220FCE710B504462CB90120DF49AE
:1013300009680882002010BDDD4909688868804777
:10134000DA4800680C30F6E710B5D84B1B68D9783E
:10135000D64B1B685879D84B1B689A69904704464E
:10136000D2480068807AE8B13CB9D048006800797A
:1013700018B9CE480068807808B1022010BD8CB939
:10138000CB490968C8688047C84800684079C749A0
:101390000968C872C5480068C078C44909680873FC
:1013A0000020EBE70220E9E710B504462CB9022043
:1013B000BE4909680882002010BD0020BF4908808E
:1013C000BA480068007800F07F0018BBB749096888
:1013D000487A00F0200131B1B849097841F00201A2
:1013E000B64A117005E0B549097801F0FD01B34A2C
:1013F000117000F0400131B1B049097841F00101AC
:10140000AE4A117005E0AD49097801F0FE01AB4A22
:1014100011703AE0A5480068007800F07F000128CC
:1014200001D1A648C8E7A1480068007800F07F0015
:10143000022828D19D4A1268517901F00F0001F06D
:1014400080027AB19E4B03EB8002D2F8002C02F0AE
:101450003002102A16D1994A127842F00102974BB5
:101460001A700FE0964B03EB8002D2F8002C02F4C6
:101470004052B2F5805F05D1904A127842F00102E5
:101480008E4B1A7001E0002096E7894909680869C7
:1014900080478A4890E72DE9F04784480068007843
:1014A00000F07F08B8F1000F0AD180480068407A48
:1014B00000F0DF007D49096848720020BDE8F08730
:1014C000B8F1020F7ED179480068408818B9774892
:1014D0000068007908B10220F0E7DFF8D89173487E
:1014E0000068477927F080052C46704800684079ED
:1014F00000F0800038B1724901EB8400D0F8000C94
:1015000000F0300606E06E4901EB8400D0F8000CD4
:1015100000F4405699F80000A84204D91EB163486F
:101520000068807A08B90220C8E707F0800080B11F
:10153000634901EB8400D0F8000C00F03000102863
:101540004BD1E0B201F02FFBE0B2302101F0B1F954
:1015500043E05B4901EB8400D0F8000C00F44050FC
:10156000B0F5805F39D1E4B9564A92F82C10E0B258
:1015700001F0A3FB524A02EB8401D1F8001C4BF6A8
:101580008F7201EA020080F4805080F4005040F431
:10159000004141F080014A4B03EB8402C2F8001C79
:1015A0001BE0E0B201F0E7FA454A02EB8401D1F812
:1015B000001C4BF68F7201EA020080F4805080F428
:1015C000005000E00FE040F4004141F080013C4B4E
:1015D00003EB8402C2F8001C00BF35490968486962
:1015E000804700206AE700BF022067E72DE9F0414D
:1015F0002E480068467926F080073C462B48006854
:10160000407900F0800038B12D4901EB8400D0F81A
:10161000000C00F0300506E0294901EB8400D0F809
:10162000000C00F4405523480078A04208D91F4818
:101630000068408820B91DB11C480068807A10B944
:101640000220BDE8F08106F08000A0B11C4A02EB48
:101650008401D1F8001C48F6BF7201EA020080F054
:10166000100040F4004141F08001154B03EB84026F
:10167000C2F8001C14E0124A02EB8401D1F8001CED
:101680004BF68F7201EA020080F4805040F4004172
:1016900041F080010A4B03EB8402C2F8001C00BF3A
:1016A00003490968886980470020CAE7880100204B
:1016B00094010020D90100208C0100206401002049
:1016C00000500040DC01002010B5FA480068407A64
:1016D00040F02000F74909684872F7490968C8696D
:1016E0008047002010BD10B50246F2480068438ACA
:1016F00032B98888C01AEF4C24682082002010BDBF
:1017000008681844FBE72DE9F041EA48006800F159
:1017100010042688A068C0B1BEB1A588B54200D922
:101720003546A8B2A168884707462088401B20801C
:10173000608828446080002001F091FA8046AAB2B7
:101740004146384600F0A8FD00BF208850B14FF454
:101750004050DA4908800021084601F08CFA302018
:10176000D74908802088A188884204DB0320D1491A
:101770000968087218E02088002804DD0520CD499A
:101780000968087210E0208870B90620C949096804
:1017900008720021CB48006880B2801CCA4A42F817
:1017A00010103020C6490880BDE8F0812DE9F047CF
:1017B000C048006800F110052E88BE480068077A0E
:1017C000D6B9042F18D1C148007801280FD10021C3
:1017D000BC48006880B2801CBB4A42F81010302020
:1017E000B749088000BF0020B849087003E0072708
:1017F0001020B349088027E0AC88A64201D8042015
:1018000000E002200746B44200D93446A0B2A968DD
:1018100088478046002001F017FA8146A2B2494667
:10182000404600F01FFDA1B2002001F024FA2888F4
:10183000001B28806888204468803020A0490880E8
:1018400000029E49088000BF9A4909680F72BDE8EE
:10185000F08770B50226974800684478954800687C
:10186000007800F07F0000284AD1092C03D1FFF74F
:101870003CFD064665E0052C14D18E480068C07812
:101880007F280BDC8B480068807838B9894800686D
:10189000808818B987480068807A08B108256BE00D
:1018A00000264EE0032C14D182480068C07801283D
:1018B0000DD180480068808848B97E480068407A29
:1018C00000F0200018B1FFF7FFFE064639E00226BF
:1018D00037E0012C35D177480068C07801280DD158
:1018E00074480068808848B972480068407A00F0FF
:1018F000200018B1FFF7CFFD064622E0022620E0C7
:101900006C480068007800F07F00012805D10B2C9E
:1019100017D1FFF719FD064613E066480068007806
:1019200000F07F0002280BD1012C03D1FFF7B3FD9B
:10193000064606E0032C04D1FFF758FE064600E0F9
:1019400002264EB1E0B2624A1268516988470646E3
:10195000032E01D109250FE00EB108250CE0062564
:1019600000215848006880B2801C574A42F8101085
:1019700030205349088000BF4E4909680D7270BD80
:101980002DE9F84F4B48006845780027BA46062DE8
:101990001BD148480068007800F07F00002813D170
:1019A000444909688878012803D149490968CF6901
:1019B0000AE0022803D1464909680F6A04E00328B7
:1019C00002D1434909684F6AADE0002D67D139481B
:1019D00000684088002862D136480068C088022824
:1019E0005DD1344800680079002858D1314800683A
:1019F000007800F07F0030B92E480068808810B968
:101A0000AFF25B678FE02B480068007800F07F0042
:101A1000012811D12749096848792D4909688A693F
:101A20000021904700287ED122480068807A002853
:101A300079D0AFF28B6776E01E480068007800F03E
:101A40007F0002286FD11B480068407900F00F0624
:101A500018480068407900F070091648006840791D
:101A600000F0800038B11B4901EB8600D0F8000C73
:101A700000F0300806E0174901EB8600D0F8000CB2
:101A800000F4405814480078B0424CD9B9F1000F26
:101A900049D1B8F1000F46D0AFF2F36743E0082D0B
:101AA0001CD104480068007800F07F00D8BBAFF27A
:101AB000E77738E088010020940100209801002099
:101AC0009A010020505C0040006000406601002048
:101AD0008C01002000500040D90100200A2D22D1A5
:101AE000C5480068007800F07F0001281BD1C2487B
:101AF0000068807AB8B1C0480068408898B9BE488C
:101B00000068007978B9BC480068C08801280AD10B
:101B1000B94909684879B94909688A690021904733
:101B200008B9AFF2FD7757B1B3480068A0F812A02A
:101B3000B148006887610020B84700240FE0AE4A32
:101B400012685078AD4A1268116988470446032C20
:101B500005D10920A84909680872BDE8F88FA64890
:101B60000068008A4FF6FF71884204D10920A2491B
:101B700009680872F1E7022C03D09F480068008AC8
:101B800020B908209C4909680872E6E79A4800686D
:101B9000007800F08000E0B397480068C0880090AB
:101BA00095480068008A0099884204D992490098B3
:101BB0000968088223E090480068008A8E49096815
:101BC000C98888421BDA8C480068008A8B490968FA
:101BD00091F82C10884203DA0020894908700EE041
:101BE00085480068008A8549096891F82C1090FBA7
:101BF000F1F201FB120010B90120814908707F4801
:101C0000006890F82C107C4800688182FFF7CEFDB8
:101C100007E0FFE703207849096808720003794963
:101C2000088000BF99E710B5774890F82C10002085
:101C300001F043F870480068007A082805D1400296
:101C4000704908801020714908806B480068007A4C
:101C5000092801D1012010BD0020FCE738B501247E
:101C60006B48006880B2001D6A4931F8100080B2EC
:101C700001EB4000009060480068007A092832D0EB
:101C8000009800785C49096808700098401C009032
:101C9000009800785849096848700098401C0090E6
:101CA000009800EB44000090009931F8020B00917D
:101CB00001F0ACF9504909684880009800EB4400F5
:101CC0000090009931F8020B009101F09FF94A4908
:101CD00009688880009800EB440000900098008814
:101CE00045490968C880012043490968087242488B
:101CF0000068C08810B9FFF7ACFD01E0FFF740FEB7
:101D0000FFF791FF38BD30B50146434B1A780020EC
:101D100014E00306414C04EB9353D3F8003C48F61F
:101D20008F74234048F280042343C4B22343040643
:101D30003A4D05EB9454C4F8003C401C9042E8D363
:101D400041F08003324C241F236030BD10B52A4877
:101D50000068047A022C01D0042C05D1FFF726FD7F
:101D600025480068047A1CE0062C19D12248006836
:101D7000407805280ED120480068007800F07F00E8
:101D800040B91D490968C878FFF7BDFF24490968B3
:101D9000086A80471949096888688047082400E074
:101DA0000824154909680C72FFF73DFF10BD10B5F6
:101DB00011480068047A022C01D0042C01D10824B7
:101DC00012E0032C01D0052C05D1FFF79CFC0A483A
:101DD0000068047A08E0072C05D108490968C8683A
:101DE0008047082400E00824034909680C72FFF7C3
:101DF0001AFF10BD70470000880100208C010020F0
:101E00006601002098010020DC0100209A010020DA
:101E1000505C004000600040D901002000500040AC
:101E200094010020002011494860704700201049AB
:101E30004860704700200F494860704710B504465D
:101E4000607A04F1300101F00CF9206010BD10B58A
:101E50000648FFF7F3FF10BD10B50548FFF7EEFF8A
:101E600010BD10B50348FFF7E9FF10BD00000020CA
:101E700070000020E000002010B508480849086004
:101E8000022009680872074807490860074808499E
:101E90000860054909680868804710BD780200207D
:101EA00088010020DC0100208C0100200C020020B1
:101EB0009401002008B50020009022E1C448008869
:101EC00000F00F00C34908700846007800287CD154
:101ED000C1480068C14908800846008800F0300009
:101EE000BF490880BD48008800F44050BB490880C5
:101EF000B94909684BF6BF7201EA020080F400504C
:101F000080F0200040F4004141F08001B24A1160AD
:101F1000AF48008800F0100090BB1046006848F6FB
:101F20000F71084011460860FFF710FFAA490968C1
:101F30004BF6BF7201EA0200A849098801F48051FA
:101F400009B180F48050A549098801F4005109B114
:101F500080F40050A249098801F0100109B180F015
:101F600010009F49098801F0200109B180F020008C
:101F700081B241F4004141F08001974A116008BDEF
:101F8000FFE79548006880B20090BDF8000000F4BB
:101F90000060B0B390480068C0F30E0048F68F713F
:101FA00008408D490860FFF759FE8B4909684BF6D8
:101FB000BF7201EA02008949098801F4805109B120
:101FC00080F480508549098800E056E001F4005112
:101FD00009B180F400508249098801F0100109B16B
:101FE00080F010007E49098801F0200109B180F0DD
:101FF000200081B241F4004141F08001764A116035
:10200000BDE7FFE7BDF8000000F40040002878D0ED
:1020100071480068C0F30E0048F68F7108406E49A1
:102020000860FFF7C4FE6C4909684BF6BF7201EA0D
:1020300002006A49098801F4805109B180F4805096
:102040006649098801F4005109B180F400506449DF
:10205000098801F0100109B180F010006049098879
:1020600001F0200109B180F0200081B241F400416B
:1020700041F08001584A116081E75648007859497B
:1020800001EB8000D0F8000C80B20090BDF8000099
:1020900000F40040C0B14F48007801EB8000D0F858
:1020A000000CC0F30E0048F68F71084049490978CA
:1020B0004C4A02EB8101C1F8000C46490978491EDF
:1020C000494A52F821008047BDF8000000F0800026
:1020D000B8B140480078434901EB8000D0F8000CCB
:1020E00048F60F7108403B4909783E4A02EB8101EE
:1020F000C1F8000C37490978491E3C4A52F82100C2
:10210000804735484430006880B23149088000F487
:10211000004000287FF4D2AE00BF30E710B50024A5
:102120004AE047F6FF702C4944310860284800888F
:1021300000F00F002749087008460078294901EB94
:102140008000D0F8000C84B204F40040C8B12148EB
:10215000007801EB8000D0F8000CC0F30E0048F6C8
:102160008F7108401B4909781E4A02EB8101C1F8B2
:10217000000C18490978491E1B4A52F82100804773
:102180001AE004F08000B8B112480078154901EB5C
:102190008000D0F8000C48F60F7108400D4909780E
:1021A000104A02EB8101C1F8000C0A490978491E66
:1021B0000E4A52F82100804707484430006880B238
:1021C0000349088000F400400028AAD110BD000097
:1021D0009C01002084010020005C00409801002048
:1021E0009A01002000500040BC010020A001002006
:1021F00010B517480068174908800846008800F4A1
:10220000004015490988084008B1FFF753FE1148FE
:10221000008800F4806010490988084030B14FF60A
:10222000FF300B4908600D4948688047094800881D
:1022300000F4007008490988084040B14FF6FF508B
:102240000349086006480078401C0549087010BD25
:10225000445C00409C01002092010020DC01002031
:102260009E010020F0B5144604F1010C4FEA6C0702
:10227000DFF848C00CEB41033D460AE00678401CFD
:1022800090F800C046EA0C2223F8022B9B1C401C4D
:102290006D1E002DF2D1F0BDF0B5561C7510074E25
:1022A00006EB41042B4605E034F8047B20F8017B63
:1022B000401C5B1E002BF7D1F0BD00000060004009
:1022C00008B5FEF7E0F80020F2490968887200F0CE
:1022D000FBF900F0A1FEF048FEF725F8EF48FEF705
:1022E00022F8EF48FEF71FF84FF48060ADF80000C9
:1022F00018208DF8030003208DF802006946E94894
:10230000FEF728FA4FF40060ADF8000004208DF8C5
:1023100003006946E348FEF71DFA0020E249086021
:1023200008BD10B50020DB4909688872DF48C07914
:10233000D849096848720020D6490968C87200F077
:1023400085FA4FF40071002000F09AFA1021002065
:1023500000F0AFFA4021002000F069FC802100204D
:1023600000F059FC002000F061FBD14890F82C10DF
:10237000002000F0A2FC002000F01CFB4FF4C06124
:10238000012000F07DFA4FF48871012000F043FC39
:102390000021012000F0ABFA2021012000F089FA91
:1023A0000021022000F06CFA4FF49071022000F03E
:1023B00032FC4FF4A071022000F039FC20210220F1
:1023C00000F07BFC2021022000F073FA4FF4405112
:1023D000022000F08CFA4FF4C061032000F050FAA4
:1023E0004FF4B071032000F016FC0021032000F030
:1023F0007EFA2021032000F05CFA0021042000F086
:102400003FFA4FF4B871042000F005FC4FF4C87196
:10241000042000F00CFC2021042000F04EFC2021C0
:10242000042000F046FA4FF44051042000F05FFA17
:102430004FF4C061052000F023FA4FF4D871052055
:1024400000F0E9FB0021052000F051FA20210520D1
:1024500000F02FFA0021062000F012FA4FF4E0718C
:10246000062000F0D8FB4FF4F071062000F0DFFBEF
:102470002021062000F021FC2021062000F019FA7E
:102480004FF44051062000F032FA0020FFF73BFCE9
:1024900001208549086010BD8648817A11B1052167
:1024A000814A1160704704207F490860704710B569
:1024B0008148007820281BD176480068407918B9F7
:1024C0007548FDF741FF10E0724800684079022826
:1024D00003D17248FDF738FF07E06E480068407985
:1024E000042802D16E48FDF72FFF002072490870C2
:1024F00010BD7047014629B90820664A126810824B
:102500000020704766482830FBE7014629B90820BB
:10251000604A126810820020704760482830FBE74C
:10252000014629B908205B4A1268108200207047D2
:1025300059482830FBE7014629B90820554A126856
:1025400010820020704756482830FBE7014629B921
:102550000820504A12681082002070474F482830E7
:10256000FBE7014629B908204A4A12681082002078
:10257000704749482830FBE770B504460025212CF8
:102580001DD144480068007800F07F00212838D130
:1025900040480068407910B9AFF2390531E03D4854
:1025A00000684079022802D1AFF25F0529E039487E
:1025B00000684079042824D1AFF2850521E0202C61
:1025C0001FD134480068007800F07F00212815D121
:1025D00030480068407910B9AFF2BB050EE02D48D5
:1025E00000684079022802D1AFF2E10506E02948EF
:1025F00000684079042801D1AFF2071520202E4948
:1026000008700DB9022070BD224800688561002164
:102610002048006841820020A8470020F3E70146D7
:102620001C480068007800F07F00212807D10229AB
:1026300001D100207047222901D10020FAE70220B1
:10264000F8E710B504461D492046FFF74CF810BDC9
:1026500010B504461A492046FFF745F810BD70B57D
:1026600005460C480068C478072C01DD002070BDC9
:10267000144800EBC4012846FFF735F8F7E7024697
:10268000002901DD02207047072A01DD0220FAE758
:102690000020F8E7880100200000002070000020E2
:1026A000E0000020000C01406002002038310008EA
:1026B000DC01002078020020D80100203002002038
:1026C000380200204002002010B501244D4804606B
:1026D00000204D490880084600884A4908600020CB
:1026E000091D08604FF4E0504749088008460088FB
:1026F000444908600120FDF787FD002010BD10B59A
:102700000120404908600020091D0860FDF77CFD9C
:1027100003203C490860002010BD10B5394800680E
:1027200084B244F0080437480460006884B244F07E
:10273000040434480460FDF783FD10BD10B5314832
:10274000006884B224F004042E480460FDF77CFD88
:102750004FF406402B49086010BD70B50546072DA3
:1027600001D02A48057029480078082841D2DFE8BE
:1027700000F0040A1016212E4142FFF7DFFF062069
:10278000224908703BE0FFF7D9FF04201F49087079
:1027900035E002201D494870032008702FE01B48D7
:1027A0004078401E194948700846407808B904200E
:1027B000087024E01348006884B244F01004114803
:1027C00004600520114908700A20487017E00F487E
:1027D0004078401E0D4948700846407840B9094885
:1027E000006884B224F010040648046006200870D3
:1027F00005E000BF00BF06200449087000BF00BF0D
:1028000070BD0000405C0040920100206502002085
:10281000FA4908607047F948006880B27047F74984
:10282000091D08607047F548001D006880B27047B8
:10283000F2480830006880B27047F0490C310860F7
:102840007047EE480C30006880B270474FF6F87160
:102850000140EA4A103211607047E84810300068C1
:1028600080B27047E64B03EB8002C2F8001C704751
:102870000146E34A02EB8100D0F8000C80B27047B9
:1028800010B5DF4B03EB8002D2F8002C48F68F1313
:102890001A400A43DA4C04EB8003C3F8002C10BD45
:1028A0000146D74A02EB8100D0F8000C00F4C0606A
:1028B000704730B5D24C04EB8003D3F8003C48F6A7
:1028C000BF7403EA040201F010030BB182F010029E
:1028D00001F020030BB182F0200242F4004343F0E8
:1028E0008003C74D05EB8004C4F8003C30BD30B513
:1028F000C34C04EB8003D3F8003C4BF68F7403EA1F
:10290000040201F480530BB182F4805201F40053AD
:102910000BB182F4005242F4004343F08003B84DFF
:1029200005EB8004C4F8003C30BD30B503460C46CE
:102930001846FFF79DFF0546012C07D125F480506E
:10294000AF4A02EB8301C1F8000C08E0022C06D16B
:1029500025F01000AA4A02EB8301C1F8000C30BD3B
:102960000146A74A02EB8100D0F8000C00F03000CD
:1029700070470146A24A02EB8100D0F8000C00F437
:102980004050704710B59E4B03EB8002D2F8002CEC
:1029900048F6BF7302EA030181F0100181F02001C3
:1029A00041F4004242F08002954C04EB8003C3F8EE
:1029B000002C10BD10B5924B03EB8002D2F8002C16
:1029C0004BF68F7302EA030181F4805181F40051C8
:1029D00041F4004242F08002894C04EB8003C3F8CA
:1029E000002C10BD864A02EB8001D1F8001C41F496
:1029F000807148F68F72114048F280021143804B7B
:102A000003EB8002C2F8001C70477D4A02EB800194
:102A1000D1F8001C48F68F62114048F28002114341
:102A2000774B03EB8002C2F8001C7047744A02EB3C
:102A30008001D1F8001C48F68F62114048F28002F4
:102A400011436F4B03EB8002C2F8001C70476C4AC5
:102A500002EB8001D1F8001C41F4807148F68F72BE
:102A6000114048F280021143654B03EB8002C2F82B
:102A7000001C7047624A02EB8001D1F8001C41F44F
:102A8000807148F68F72114048F2800211435C4B0E
:102A900003EB8002C2F8001C7047594A02EB800128
:102AA000D1F8001C48F68F62114048F280021143B1
:102AB000534B03EB8002C2F8001C70470146504A9A
:102AC00002EB8100D0F8000C00F03000102801D19A
:102AD000012070470020FCE70146494A02EB8100D3
:102AE000D0F8000C00F44050B0F5805F01D1012017
:102AF00070470020FCE7424A02EB8001D1F8001C3D
:102B0000C1F30E0148F68F7211403D4B03EB80027A
:102B1000C2F8001C70473A4A02EB8001D1F8001C51
:102B200048F60F721140364B03EB8002C2F8001CCE
:102B30007047334A02EB8001D1F8001C48F68F72CF
:102B400011404CF2800211432D4B03EB8002C2F87E
:102B5000001C70472A4A02EB8001D1F8001C48F69D
:102B60008F72114048F2C0021143254B03EB8002E3
:102B7000C2F8001C7047224A02EB8001D1F8001C09
:102B800001F4804171B102EB8001D1F8001C48F6DC
:102B90008F7211404CF280021143194B03EB8002FB
:102BA000C2F8001C7047164A02EB8001D1F8001CE5
:102BB00001F0400171B102EB8001D1F8001C48F630
:102BC0008F72114048F2C00211430D4B03EB80029B
:102BD000C2F8001C704710B5094B03EB8002D2F815
:102BE000002C48F68F731A4048F280031A430A43B8
:102BF000034C04EB8003C3F8002C10BD405C004084
:102C0000005000400146FC4A02EB8100D0F8000C65
:102C100000F00F00704710B54A105200F74B1B68C8
:102C20009BB203EBC003F64C44F8132010BD10B563
:102C30004A105300F14A126892B202EBC002121D10
:102C4000EF4C44F8123010BD0146EC48006880B2E9
:102C500000EBC100EA4A32F8100080B2704701462A
:102C6000E648006880B200EBC100001DE44A32F87B
:102C7000100080B27047E14A126892B202EBC002C3
:102C8000921CDF4B43F81210704702463E290BDDC1
:102C9000481101F01F030BB9431E98B24FF40043D3
:102CA00043EA8023136007E0481001F001030BB1F1
:102CB000431C98B283021360704710B50246CF4898
:102CC000006880B200EBC200801DCD4C04EB4003D5
:102CD0003E290BDD481101F01F040CB9441EA0B2BF
:102CE0004FF4004444EA80241C6007E0481001F0DF
:102CF00001040CB1441CA0B284021C6010BD01464A
:102D0000BE48006880B200EBC100801CBC4A32F8AB
:102D10001000C0F3090070470146B848006880B24F
:102D200000EBC100801DB64A32F81000C0F3090064
:102D3000704730B54B105B00B04C2468A4B204EB74
:102D4000C004AF4D45F8143053105C00AB4B1B680A
:102D50009BB203EBC0031B1D45F8134030BD10B5FB
:102D60004A105200A54B1B689BB203EBC003A44C56
:102D700044F8132010BD10B54A1053009F4A126842
:102D800092B202EBC002121D9D4C44F8123010BDED
:102D900001469A48006880B200EBC100984A32F8B8
:102DA000100080B2704701469448006880B200EB82
:102DB000C100001D924A32F8100080B2704730B551
:102DC0000B46012B1FD18D49096889B201EBC00167
:102DD000891C8B4D05EB41043E2A0BDD511102F09D
:102DE0001F050DB94D1EA9B24FF4004545EA8125D6
:102DF000256007E0511002F001050DB14D1CA9B28C
:102E00008D0225600AE0022B08D17C49096889B24D
:102E100001EBC001891C7A4C44F81120012B1FD111
:102E20007649096889B201EBC001891D744D05EB33
:102E300041043E2A0BDD511102F01F050DB94D1E54
:102E4000A9B24FF4004545EA8125256007E05110FD
:102E500002F001050DB14D1CA9B28D0225600AE0FA
:102E6000022B08D16549096889B201EBC001891DAF
:102E7000634C44F8112030BD30B5034601291FD101
:102E80005E48006880B200EBC300801C5C4D05EB1F
:102E900040043E2A0BDD501102F01F050DB9451EFE
:102EA000A8B24FF4004545EA8025256007E05010A0
:102EB00002F001050DB1451CA8B2850225600AE0AB
:102EC000022908D14D48006880B200EBC300801C85
:102ED0004B4C44F8102030BD30B5034601291FD1BA
:102EE0004648006880B200EBC300801D444D05EBEE
:102EF00040043E2A0BDD501102F01F050DB9451E9E
:102F0000A8B24FF4004545EA8025256007E050103F
:102F100002F001050DB1451CA8B2850225600AE04A
:102F2000022908D13548006880B200EBC300801D3B
:102F3000334C44F8102030BD01463048006880B260
:102F400000EBC100801C2E4A32F81000C0F30900CB
:102F5000704701462948006880B200EBC100801D1F
:102F6000274A32F81000C0F3090070470146234891
:102F7000006880B200EBC100801D214A32F81000C9
:102F800000F47C4008B1012070471C48006880B202
:102F900000EBC100801C1A4A32F81000C0F309008F
:102FA00008B10220F0E70020EEE710B5012910D1AA
:102FB000114B03EB8002D2F8002C48F68F731A40B5
:102FC00048F2C0031A430C4C04EB8003C3F8002CF6
:102FD00011E002290FD1084B03EB8002D2F8002C3C
:102FE00048F68F731A404CF280031A43024C04EBEC
:102FF0008003C3F8002C10BD00500040505C00401E
:1030000000600040024641EA022070470146CAB211
:103010000B1243EA0220704700201D4908604FF45C
:1030200006401C490880084600881949091F0860A5
:10303000002070472DE9F04104460E46154604F085
:103040007F00FFF701FE0746AAB239463046FFF778
:1030500009F9A9B204F07F00FFF70DFE0020BDE8DA
:10306000F0812DE9F04104460E46002504F07F0072
:10307000FFF752FE054604F07F00FFF7F0FD07461C
:103080002A4639463046FFF707F92846BDE8F08161
:10309000445C0040920100207047704770477546BD
:1030A00000F028F8AE4605006946534620F00700B8
:1030B000854618B020B5FDF795F8BDE820404FF0E3
:1030C00000064FF000074FF000084FF0000B21F012
:1030D0000701AC46ACE8C009ACE8C009ACE8C009DF
:1030E000ACE8C0098D4670470446AFF30080204627
:1030F000FDF763F80048704794020020014918204A
:10310000ABBEFEE726000200704700020318000471
:103110000304040003180800030400040318000853
:1031200003040010031412010002EF02014002FF29
:1031300004000002010203010902CF00060100C0E1
:1031400032080B000202020102090400000102021F
:1031500001000524001001052401000104240202DD
:103160000524060001070581030800FF090401008A
:10317000020A000000070502022000000705820283
:10318000200000080B0202020201020904020001F1
:10319000020201000524001001052401000304249B
:1031A00002020524060203070583030800FF090441
:1031B0000300020A000000070504022000000705C2
:1031C0008402200000080B04020202010209040428
:1031D0000001020201000524001001052401000580
:1031E000042402020524060405070585030800FFE0
:1031F00009040500020A000000070506022000007D
:103200000705860220000004030904260353005426
:10321000004D006900630072006F0065006C00657E
:10322000006300740072006F006E00690063007339
:10323000003203530054004D00330032002000568A
:1032400000690072007400750061006C002000438A
:10325000004F004D00200050006F007200740020ED
:1032600000200000843200080000002068020000F6
:103270002801000860330008680200209006000062
:1032800084010008811502020282143801401608E8
:1032900001400A311B080E048204324033C201028D
:1032A000490815040404841A445A19701A126C7AD5
:1032B00016706202094D7015060606864A48701A95
:1032C0001A6C1A1E04495E59E60949702D01020361
:1032D000040428080607080902040655141A0353B3
:1032E0001254124D123312321231022A3013F51DCC
:1032F0001408251E2A08085A2D085A350829045A88
:103300004F0C5A59085A63081113070113C12214AC
:103310000823231408AF241B08F304137925140889
:103320001F261B087F041A43041A51041A5F044124
:103330005A406C1A9928695CE9041AA71C132631B3
:103340003308121A380832CF1307323308041A0B25
:103350000832261A3108323213670173201A3201FB
:04000005080000ED02
:00000001FF
